:03002300020102D5
:100100008049309803C29832C0E0C0D07407128092
:10011000BDC299F5993099FD12013DC2997420F53F
:10012000993099FDC299E57DF5993099FDC2997490
:100130000DF5993099FDC299D0D0D0E032C299C066
:10014000E0E57EF5993099FDD0E0227598C075897B
:1001500020758DFDD2ACD299D28ED2AF12826412AC
:100160008270005472696C6F626F7400128270400A
:1001700061332E6135310074FF1280A57401128045
:100180003C7441C0E01280697046D0E0B4413F3019
:10019000003CD07CE57CB438051201E58042B432E5
:1001A000051201EB803AB434051201F18032B43605
:1001B000051201F7802AB437051201FD8022B439F7
:1001C00005120203801AB4354C120209801241272D
:1001D000F41280A5743212020F74FF1280A580A35E
:1001E000C200E48042744012020F22746012020FB7
:1001F00022740612020F22742612020F22740212B7
:10020000020F22742212020F2274FF12020F221216
:1002100080B7F57D22128264128270004920474F18
:1002200020424F4F4D002212803C1280F61280F97E
:0E023000B43007D200C0E0E4413AF57D2183EE
:00000001FF
